:020000040800F2
:10000000E859002031020008510800089106000854
:100010004D080008A104000831120008000000008B
:10002000000000000000000000000000710800084F
:100030005D05000800000000530800087308000870
:100040004B0200084B0200084B0200084B0200085C
:100050004B0200084B0200084B0200084B0200084C
:100060004B0200084B0200084B0200084B0200083C
:100070004B0200084B0200084B0200084B0200082C
:100080004B0200084B0200084B0200084B0200081C
:10009000A50400084B0200084B0200084B020008B0
:1000A000AD0A00084B0200084B0200084B02000892
:1000B000810C0008691000084B0200084B02000880
:1000C0004B0200084B0200084B0200084B020008DC
:1000D0004B0200084B020008A51100084B02000863
:1000E000710500084B020008FD1100084B020008D2
:1000F0004B0200084B0200084B0200080000000001
:100100004B020008000000004B0200084B020008F0
:100110004B0200084B02000871100008A9100008EB
:100120004B0200084B0200084B0200084B0200087B
:100130004B02000800000000000000004B02000815
:10014000C10400084B0200084B020008ED11000832
:1001500000F002F800F05CF80AA090E8000C82447D
:100160008344AAF10107DA4501D100F051F8AFF25A
:10017000090EBAE80F0013F0010F18BFFB1A43F085
:100180000103184754450000744500000A444FF02D
:10019000000C10F8013B13F0070408BF10F8014BE6
:1001A0001D1108BF10F8015B641E05D010F8016B2B
:1001B000641E01F8016BF9D113F0080F1EBF10F88F
:1001C000014BAD1C0C1B09D16D1E58BF01F801CBB2
:1001D000FAD505E014F8016B01F8016B6D1EF9D535
:1001E0009142D6D37047000000230024002500264A
:1001F000103A28BF78C1FBD8520728BF30C148BF8A
:100200000B6070471FB504F012F91FBD10B510BD8B
:1002100000F0CFF81146FFF7F5FF01F069FF00F09D
:10022000EDF803B4FFF7F2FF03BC00F0F5F80000AF
:100230000948804709480047FEE7FEE7FEE7FEE77A
:10024000FEE7FEE7FEE7FEE7FEE7FEE704480549B6
:10025000054A064B70470000750800085101000868
:10026000E8510020E8590020E8550020E85500201A
:10027000032A40F2308010F0030C00F0158011F8D2
:10028000013BBCF1020F624498BF11F801CB00F8AA
:10029000013B38BF11F8013BA2F1040298BF00F8FE
:1002A00001CB38BF00F8013B11F0030300F02580BB
:1002B000083AC0F0088051F8043B083A51F804CBE2
:1002C000A0E80810F5E7121D5CBF51F8043B40F8A8
:1002D000043BAFF30080D20724BF11F8013B11F8B3
:1002E00001CB48BF11F8012B24BF00F8013B00F8F7
:1002F00001CB48BF00F8012B704710B5203AC0F081
:100300000B80B1E81850203AA0E81850B1E8185016
:10031000A0E81850BFF4F5AF5FEA027C24BFB1E853
:100320001850A0E8185044BF18C918C0BDE81040C4
:100330005FEA827C24BF51F8043B40F8043B08BFCD
:100340007047D20728BF31F8023B48BF11F8012B94
:1003500028BF20F8023B48BF00F8012B70474FF040
:10036000000200B5134694469646203922BFA0E805
:100370000C50A0E80C50B1F12001BFF4F7AF090711
:1003800028BFA0E80C5048BF0CC05DF804EB890002
:1003900028BF40F8042B08BF704748BF20F8022B45
:1003A00011F0804F18BF00F8012B7047704770475D
:1003B0007047754600F02CF8AE4605006946534676
:1003C00020F00700854618B020B5FFF73FFFBDE8D5
:1003D00020404FF000064FF000074FF000084FF0AC
:1003E000000B21F00701AC46ACE8C009ACE8C0093D
:1003F000ACE8C009ACE8C0098D46704710B50446AA
:10040000AFF300802046BDE81040FFF70ABF0000B0
:10041000004870478451002001491820ABBEFEE718
:10042000260002007047000010B540F2026002F0A2
:100430006BF94FF4C06002F067F940F2096002F016
:1004400063F9012001F08CFF80230422002112486F
:1004500001F07CFD002001F009FA00210F4801F0B5
:10046000B9F9012211460D4801F091F94FF46022CB
:1004700001210A4801F0E1F901221146074801F083
:10048000BDF9064801F0B1F9012000F068F8034811
:1004900001F068F910BD000000080140002401408F
:1004A00000BFFEE700B595B00020019001AA002131
:1004B000024801F0E9F915B000BD000000640040F9
:1004C00000B595B001AA0021024801F0DDF915B090
:1004D00000BD0000006800402DE9F04F0746884647
:1004E000914601244FF0C80B0020B860002526E09B
:1004F000002620E018F80500C6F10701084100F0C9
:10050000010028B10CB1802000E04020824604E0C8
:100510000CB1402000E0802082460CB9012000E0B0
:100520000020044624B952465946384600F01EFEC3
:10053000D346701CC6B2082EDCDB681CC5B24D4524
:10054000D6DB14B90020BDE8F08F4FF0A00A524668
:100550005946384600F00AFE0120F4E7704710B50E
:1005600004464FF47A7104FB01F000F0B9FD10BDB0
:10057000FEB5002500260020009001900290002486
:1005800000274FF4806001F0CBFC78B100F06AF8EE
:1005900005464FF48061304801F036FD08B9012767
:1005A00000E000274FF4806001F0B4FC2046611C9D
:1005B000CCB20DF800703B222046611CCCB20DF885
:1005C000002054222046611CCCB20DF80020692284
:1005D0002046611CCCB20DF80020C5F3074220462E
:1005E000611CCCB20DF80020C5F307222046611C27
:1005F000CCB20DF80020EAB22046611CCCB20DF856
:10060000002090222046611CCCB20DF800200D2263
:100610002046611CCCB20DF800200A222046611C45
:10062000CCB20DF8002000260FE00C480068B0F5B1
:10063000804F00D90BE01DF8062008490868411CCE
:10064000064B196006490A54761CA642EDD300BF3A
:1006500000F008F8FEBD0000000801404C01002039
:100660002C16002010B50024074802F01AFB04469F
:100670000648006804440021034802F016FB0020ED
:1006800002490860204610BD001400403C010020D3
:1006900000BFFEE710B540F2027002F035F840F2FC
:1006A000036002F031F84FF4C06002F02DF88023AF
:1006B00003221821054801F049FC40230322282188
:1006C000024801F043FC00F027F910BD000C014086
:1006D000F0B587B004460027A06810B9002007B025
:1006E000F0BD0020606004F10C00616830F811502A
:1006F000F030616830F811606068401C6060374815
:1007000002F0D6FA684602F0B7FC04A802F0C1FA7B
:100710000120ADF810000020ADF81200ADF8140073
:10072000ADF81600ADF81800ADF81A0004AA0121C2
:100730002A4802F01DF902957720ADF8000000204C
:10074000ADF80200ADF80400ADF80C008DF80E0015
:100750006946224802F084FB324601211F4802F01C
:1007600058FA082201211D4802F066FA1B4802F0DF
:10077000AFF84FF0804002F05DFB60220121174886
:1007800002F0ECF9154802F05AFB0421134802F07C
:100790005BFB13E00421114802F059FB00B90DE0A6
:1007A00004210E4802F050FB204600F043FD20B922
:1007B0000A4802F03FFB0020207000BF207800288C
:1007C000E8D107490870074908604FF0804002F0FF
:1007D00036FBFFF747FF384681E70000000800407E
:1007E0004A0100204C01002070B505460C46002649
:1007F000224629460748FFF76FFE08B9002070BD62
:100800000120044908700846FFF762FF0646661C8F
:100810003046F4E71446002010B540F2036001F0C2
:1008200073FF4FF4C05303221021074801F08EFBE1
:100830004FF48051044801F085FB4FF400610248F9
:1008400001F082FB10BD0000000C014000BFFEE77C
:100850007047704770B50546D5F830440020607089
:1008600020704023A21C0321284603F0C6F970BD66
:100870007047704708B52548006840F47000234968
:1008800008602348006840F001002149086000BF6B
:100890000846406840F0800048600020009002E078
:1008A0000098401C009000985028F9D318484068E0
:1008B00040F09000164948600020009002E0009847
:1008C000401C009000985028F9D300BF10484068A1
:1008D00020F003000E494860084600680D490840B2
:1008E0000B4908604FF47F00886000204860C862B0
:1008F0000846006820F48020086001F0E5FF002130
:100900004FF0006001F0BEFC08BD000088ED00E083
:1009100000100240FFFFF6EA00B587B040F2026027
:1009200001F0F2FE4FF4C06001F0EEFE022303225C
:100930000421274801F00AFB4FF4C06001F098FC45
:10094000012211461C2001F03DFC4FF4E06001F053
:10095000DBFE4FF0804002F0ABF901A802F08CFB07
:100960004FF6FF7003907720ADF804000020ADF83B
:100970000600ADF80800ADF8100001A94FF0804066
:1009800002F06EFA05A801F0EAFF0020ADF81400AD
:100990000120ADF816000020ADF818000320ADF8D6
:1009A0001A0005AA0121880702F0ACFA4FF0804036
:1009B00001F08EFF0521880702F04FFB0521880713
:1009C00002F047FB4FF0804002F039FA07B000BD5B
:1009D000000801401FB540F2047001F095FE164872
:1009E00002F066F9684602F047FB4FF6FE7002908F
:1009F0007720ADF800000020ADF80400ADF80C0041
:100A000069460D4802F02CFA01210B4802F025FB43
:100A10000121094802F01DFB074802F010FA4FF4CB
:100A2000C06001F025FC01221146362001F0CAFB0E
:100A30000020024908601FBD00100040380100205E
:100A40001FB540F2057001F05FFE164802F030F964
:100A5000684602F011FB4FF6FE7002907720ADF869
:100A600000000020ADF80400ADF80C0069460D4808
:100A700002F0F6F901210B4802F0EFFA01210948D2
:100A800002F0E7FA074802F0DAF94FF4C06001F02B
:100A9000EFFB01221146372001F094FB00200249B0
:100AA00008601FBD001400403C010020FEB5002579
:100AB00000260020009001900290002400270121D0
:100AC000694802F0CDFA01280FD10121664802F0F1
:100AD000C4FA664800684FF6FF710844634908602D
:100AE0000021614802F0E1F8FEBD0121604802F0FA
:100AF000B7FA01280FD101215D4802F0AEFA5B4838
:100B000000684FF6FF7108445849086000215848B2
:100B100002F0CBF8E8E70821534802F0A1FA0128D7
:100B200029D10821504802F098FA02214E4801F0DC
:100B3000D4FE054600214C4802F0B7F84B48006847
:100B400028444A49086008460568002008604FF4B8
:100B50008061484801F058FA30B900220121444828
:100B600002F029F801272AE000270222012140484B
:100B700002F021F823E004213D4802F071FA012837
:100B80001DD104213A4802F068FA0121384801F0E9
:100B9000A4FE05460021364802F087F83348006875
:100BA000284432490860084605680020086008218A
:100BB000304801F029FA08B9012700E00027204653
:100BC000611CCCB20DF800703B222046611CCCB2F7
:100BD0000DF8002054222046611CCCB20DF80020F4
:100BE00069222046611CCCB20DF80020C5F30742F3
:100BF0002046611CCCB20DF80020C5F30722204628
:100C0000611CCCB20DF80020EAB22046611CCCB2C7
:100C10000DF8002090222046611CCCB20DF8002077
:100C20000D222046611CCCB20DF800200A2220467D
:100C3000611CCCB20DF8002000260FE00E480068C1
:100C4000B0F5804F00D90BE01DF806200A4908686E
:100C5000411C094B196009490A54761CA642EDD380
:100C600000BF00BF40E70000002C01404001002011
:100C7000004C0140000801404C0100202C160020CF
:100C80002DE9FE43002400270020009001900290EF
:100C90000025002680460121880702F0E1F901289D
:100CA00011D10121800702F0D8F9E24800684FF61F
:100CB000FF710844DF49086000214FF0804001F0D7
:100CC000F4FFBDE8FE830020DB49087002214807DD
:100CD00002F0C6F901287DD10221800702F0BDF99A
:100CE00000214FF0804001F0F8FD044600214FF054
:100CF000804001F0DAFFCF4800682044CD49086009
:100D000008460468002008600121CC4801F07CF905
:100D100038B9002211464FF0804001F04CFF012607
:100D200005E0002602220021500701F044FFC448DC
:100D30000670302C54D2022C52D9C24800780028B8
:100D40004ED1012E07D1C0490888411CBE4B1980E5
:100D5000BE490C5406E0BE490888411CBC4B1980B2
:100D6000BC490C54B8480088012825D1B8480088EF
:100D7000012821D1B548007818281DDD0020B2498E
:100D80000880B3490880B4480078A8B99022B349D4
:100D90000868411CB14B1960B1490A540D2219462B
:100DA0000868411C1960AE490A540A2219460868AD
:100DB000411C1960AA490A54A548008808280ED188
:100DC000A14800880828FAD1A64800780728F6D15B
:100DD000002000E03FE09C4908809D490880D0E069
:100DE000302CFCD9974800780028F8D19848008822
:100DF000072828D194480088082824D199480078E9
:100E0000072820D19148C0790A2808DD0822904996
:100E10000888411C8E4B19808E490A5407E0102225
:100E20008B490888411C8A4B19808A490A54F12C45
:100E300009D08948007830B988490868411C874B37
:100E4000196087490C544FF0010800207E49088042
:100E50007F49088095E00421080702F001F9012884
:100E6000BDD10421800702F0F8F80121880701F0C4
:100E700034FD044600214FF0804001F016FF6D481C
:100E8000006820446B490860084604680020086038
:100E900002216A4801F0B8F830B900220121880720
:100EA00001F089FE012605E00026022201218807C3
:100EB00001F081FE62480078802804D06048007804
:100EC000B04200D1FDE65E480670A02C27D21E2C51
:100ED00025D95C48007810BB012E07D15A490888F3
:100EE000411C594B198059490C5406E0584908884F
:100EF000411C574B198057490C5455480088042809
:100F00003FD15148008804283BD156480078062834
:100F100037D100204C4908804D49088031E0A02C91
:100F20002FD94848007860BBA32C20D9EF2C1ED2C3
:100F3000012E1CD148480078C8B99022474908685A
:100F4000411C464B196046490A540D22194608684F
:100F5000411C196042490A540A2219460868411C7A
:100F600019603F490A5401203349087004E0EF2C0E
:100F700002D90EB94FF001080020334908803449E6
:100F8000088030480078012851D12846691CCDB22C
:100F90000DF800603B222846691CCDB20DF80020F8
:100FA00054222846691CCDB20DF80020692228463B
:100FB000691CCDB20DF80020C4F307422846691C15
:100FC000CDB20DF80020C4F307222846691CCDB22B
:100FD0000DF80020E2B22846691CCDB20DF80020C1
:100FE00090222846691CCDB20DF800200D2228461B
:100FF000691CCDB20DF800200A222846691CCDB22A
:101000000DF8002000270FE014480068B0F5804F6D
:1010100000D90BE01DF8072010490868411C0F4B50
:1010200019600F490A547F1CAF42EDD300E000BFA6
:1010300000BF46E6400100204A01002000080140B0
:101040000C00002051010020460100202C26002029
:101050004801002020280020680100204C010020C9
:101060002C1600205801002010B502F003FB10BD23
:1010700010B501210A4801F0F3FF01280ED101212A
:10108000074801F0EAFF0021054801F00EFE05487F
:1010900000684FF6FE7108440249086010BD000068
:1010A000001000403801002010B501210A4801F06D
:1010B000D7FF01280ED10121074801F0CEFF002102
:1010C000054801F0F2FD054800684FF6FE7108443E
:1010D0000249086010BD0000001400403C010020DF
:1010E0002DE9F04104460025002642F21070B4FBC1
:1010F000F0F8002716E000201A49086000211A487D
:1011000001F0D3FD0BE0184801F0CBFD0546154872
:101110000068284442F21071884200D300E0F2E7F0
:1011200000BF7F1C4745E6D342F21070B4FBF0F1DC
:1011300000FB11469EB100200A49086000210A48C0
:1011400001F0B3FD09E0084801F0ABFD0546054894
:1011500000682844B04200D300E0F4E700BFBDE8D7
:10116000F0810000380100200010004070B58C189C
:10117000641EA3B200F10C04856824F8153003FB4B
:1011800001F48D18B4FBF5F4A5B28668741C846074
:1011900000F1FC0424F816508468A02C01D9A02486
:1011A000846070BD70B5002500240C490C4801F026
:1011B00080FF88B109490A4801F06EFFFFF752FA33
:1011C0000546012007490870054801F060FFC4B2D8
:1011D00005480470FFF746FA70BD000005030500DE
:1011E000004400405A0100205901002010B5024877
:1011F00003F018F810BD00007C01002010B50A486B
:10120000C07960B1FFF736FB0848006801F0ACFA1E
:1012100040F20C5001F078FA034801F0D3FF4FF48C
:10122000802000F077FE10BD7C0100200800002027
:1012300000BFFEE70146D1E90102904214D201F15C
:10124000FC004A6830F81200084A106001F10C00F6
:101250004A6830F81200401C044A0C3A1060486892
:10126000401C4860012070470020FCE7380800401F
:101270000346D3F82804806880781080D3F82804C7
:101280008068704710B50346D3F828044068847816
:10129000D3F828044068C07844EA00201080D3F8CE
:1012A0002804406810BD0346D3F82804006800787D
:1012B0001080D3F828040068704770B504460D46C6
:1012C0000026287800F0030020B1012813D002285E
:1012D00029D111E0CE20005D022803D0CE20005D90
:1012E000032807D16888012804D1002184F81A1442
:1012F000002070BD18E017E02E79CE20005D032895
:1013000010D1688860B95EB1802E09D03146204680
:1013100002F005FDD4F82C042946C2682046904707
:101320000020E6E700E000BF00BF0120E1E710B5C4
:1013300002460C46012002F1D001CE239B5C022B19
:1013400002D0032B0AD104E092F8CC3003B900207C
:1013500005E092F8CC3003B1002000E000BF00BFF0
:1013600020B902F1CC038B6001234B6110BD00005A
:101370002DE9F04707460D460026B0464FF001091B
:1013800007F1D004287800F0030020B101284BD0E9
:10139000022852D150E06888060A95F80280102E83
:1013A0003FD2DFE806F03E08182331323334353EB1
:1013B0003E3E3E3E3E36701E304951F8203004F12C
:1013C0001402414638469847A060E888402801D179
:1013D0000820606126E0701E284951F8203004F191
:1013E0001402414638469847A0601BE0B8F1060F4A
:1013F00009DA701E214951F8203004F114024146E7
:1014000038469847A0600DE000BF00BF00BF00BF96
:1014100008E004F1140241463846FFF729FFA060B6
:1014200000E000BF00BF09E0D7F82C042946C268DD
:1014300038469047814601E000E000BF00BF606988
:10144000C0B1E888B0B1E988606988420ED2A1884D
:10145000606988420CD3A1886069B0FBF1F201FB9E
:10146000120028B9012187F8251401E0E88860619D
:101470004FF000094846BDE8F08700004C0000200E
:101480000246CE20805C012804D0022803D0032825
:1014900010D101E00FE00EE00879012809DC02F12B
:1014A000D003D2F82C04401C986001205861002021
:1014B000704700E000BF00BF0120F9E770B50246A9
:1014C0000B461979012002F1D0041D7805F00305BF
:1014D00025B1012D23D0022D48D128E0CE25AD5CC9
:1014E000022D03D0CE25AD5C032D17D192F81854F0
:1014F0001DB10125214E357002E000251F4E3570CB
:1015000092F81A5435B11D4D2D7845F002051B4E49
:10151000357002E00025194E3570002027E0CE25F9
:10152000AD5C032D02D1012900DC00201FE0CE2597
:10153000AD5C032D19D101F08005802D0BD101F098
:101540007F05C5EBC50602F1D00505EB8605AD7834
:101550000A4E357008E0C1EBC10602F51D7505EBBA
:101560008605AD78054E3570002000E000BF00BF55
:1015700018B9024DA5600225656170BD58000020B4
:1015800002460120704710B50246888838BBC888DB
:1015900028BB887800F07F03CD208354CE20805C68
:1015A00003281CD0CD23985C00BF53691B6823F42B
:1015B000FE6453691C6053691B6843EA0014536955
:1015C0001C6000BF00BFCD20805C18B10223CE207C
:1015D000835402E00123CE208354002010BD01205B
:1015E000FCE7000070B504460D460126A87829499D
:1015F00008700846007801284ADCCE20005D0128EA
:1016000043D0022802D0032840D112E021480078BC
:1016100068B1D4F82C0442681E48017820469047EF
:101620001C48007884F8CC000321CE200155002608
:101630002DE01848007870B9D4F82C048268154859
:101640000178204690471348007884F8CC000221A6
:10165000CE20015517E094F8CC000E490978884255
:1016600011D0D4F82C0482680A48017820469047AB
:101670000848007884F8CC00D4F82C044268054867
:10168000017820469047002601E000E000BF00BF3F
:10169000304670BD5A00002002460020704770B5E9
:1016A00004460D460026287800F0030020B10128EA
:1016B00013D0022823D111E0CE20005D022803D0F0
:1016C000CE20005D032807D16888012802D10121BE
:1016D00084F81A14002070BD12E011E02E79CE209B
:1016E000005D03280AD1688830B92EB1802E03D05E
:1016F0003146204602F0F6FA0020ECE700E000BF99
:1017000000BF0120E7E770B504460D46CE20005D1E
:10171000012804D0022803D0032812D101E011E0EF
:1017200010E0287901280BDCD4F82C04006928B1DA
:10173000D4F82C042946026920469047002070BD49
:1017400000E000BF00BF0120F9E70246002070471B
:1017500010B50346D3F82844E46854F8210004780F
:10176000148010BD816841F00801816000BF81686C
:1017700001F008010029FAD1816841F0040181607B
:1017800000BF816801F004010029FAD1704730B52B
:10179000012902D002291AD10CE0C36A23F4700394
:1017A000C362C36A541E4FF4700505EA0454234310
:1017B000C3620DE0836B23F440138363836B541E79
:1017C0004FF4401505EA04542343836300E000BF4F
:1017D00000BF30BD21B1826842F40062826003E044
:1017E000826822F4006282607047816801F0010122
:1017F00019B9816841F001018160704772B101F04F
:1018000001031BB1836843F48013836001F002037A
:1018100093B1836843F4004383600DE001F001035A
:101820001BB1836823F48013836001F002031BB1B2
:10183000836823F4004383607047012902D00229A2
:1018400010D107E0836823F4602383608368134327
:10185000836008E0836823F4E04383608368134374
:10186000836000E000BF00BF7047000005490968C1
:1018700021F47021034A1160114609680143116087
:101880007047000004240140F8B50026002500F54B
:10189000D87707EB01173F6807F004071772177A2C
:1018A0003FB900F5D87707EB01173F687F0D176048
:1018B00006E000F5D87707EB01173F68FF0857608F
:1018C00000F5D87707EB01173F6807F0020757725A
:1018D00000F5DA7707EB01173F683F0A82F84B7093
:1018E00000F5DA7707EB01173F6807F08007FF097B
:1018F00082F84C70076A07F00106002E51D192F869
:101900004C70EFBB00F5DA7707EB01173F6807F083
:101910000F07977200F5DC7707EB01173F68D77266
:1019200000F5DC7707EB01173F684FEA172C82F8C8
:101930000CC000F5DC7707EB01173F684FEA174C46
:1019400082F80DC000F5DC7707EB01173F684FEA1E
:10195000176C82F80EC000F5DE7707EB01173F68C1
:10196000D77300F5DE7707EB01173F684FEA172CB6
:1019700082F810C000F5DE7707EB01173F6800E042
:101980000DE04FEA174C82F811C000F5DE7707EB47
:1019900001173F684FEA176C82F812C049E000BF98
:1019A000FEE700F5DA7707EB01173F6807F00F0550
:1019B000082D01D8957206E0A5F10907DFF888C067
:1019C0001CF80770977200F5DA7707EB01173F688C
:1019D000C7F3401782F84D7000F5DA7707EB01176F
:1019E0003F68C7F3001782F84E70977ABB08012B47
:1019F00004D1977A042F01D05F1CFBB202F10B07D0
:101A000000973BB900F5DC7707EB01173C68009FB6
:101A10003C600EE00BE000F5DC7707EB01173C685B
:101A2000009F3C60009F3F1D00975F1EFBB2002B94
:101A3000F1D121B9C76847F02007C76003E0076903
:101A400047F020070761F8BD3844000870B5044628
:101A50000D468121204602F0B6F80321204602F00F
:101A6000B2F88221204602F0AEF8002070BD0000DE
:101A70002DE9F04104460E4606F07F00C0EBC001A0
:101A800004F1D00000EB8105D4F83074A988E8682F
:101A9000B0FBF1F201FB120040B9E86830B100235D
:101AA0001A463146204602F0C6F801E0012038709F
:101AB0008020024908700020BDE8F08170000020FD
:101AC0007CB504460D461349204602F0D3F811496F
:101AD000C91F204602F0CEF80E491739204602F001
:101AE000C9F801200C49487008700020C8640B49EF
:101AF00003C9CDE900010848503000990160BDF8E4
:101B0000041081809DF8061081710349C4F83014D7
:101B100000207CBDAE450008D4050020D04600085A
:101B20002DE9F04106460F464FF000080025D6F893
:101B3000304401206070C7EBC70106F51D7000EB53
:101B400081000069E06494F84C5000203649088018
:101B500036490880802036490870E178A07801EB8A
:101B600000201FFA80F8207955281CD16079AA2816
:101B700019D1B8F1400F16DD80202E4908700020E1
:101B80002D4908602D48C0F800802D492A4A126866
:101B900088182A46A11CFEF76BFB274800682844DA
:101BA0002549086010E02348007880280CD124499A
:101BB000214A126888182A46A11CFEF759FB1E48C4
:101BC000006828441C4908601B4800681B490968D4
:101BD000884209D317480078802805D1002015498C
:101BE00008701548057811E012480078802808D15F
:101BF0000020607020703046FEF72CFE0020BDE80B
:101C0000F0812A46A11C0E48FEF732FB80200649CF
:101C10000880064805800020607020703046FEF77E
:101C200019FE0020EBE700005E0000205C000020B1
:101C30007A01002066000020680000206C0000206F
:101C40002C06002030B502460B46D2F83014002492
:101C50005878042815D007DC78B101280ED0022866
:101C60000DD0032842D10BE020280BD0212815D01D
:101C7000222839D0232839D137E038E037E036E060
:101C800035E034E002F51D745D78D2F82C0445701F
:101C9000D888606101F14200A06028E002F1D00420
:101CA0004231887B0870C8894239C0F30725432038
:101CB0004554086DC0F3074544204554086D050E92
:101CC000452045545420455C462045545520455CEC
:101CD000472045545620455C4820455401F14200B8
:101CE000A0600720606102E001E000E000BF00BFEB
:101CF000002030BD0246D2F83014D2F82C044078CF
:101D0000FF281ED091F842304320405C43EA002374
:101D10004420405C43EA00434520405C43EA0060C5
:101D200008654620435C542043544720435C5520BB
:101D300043544820435C56204354FF23D2F82C04DC
:101D400043700020704700000549096821F47F01B5
:101D5000034A11601146096841EA00411160704769
:101D600004C8004010B5002000F054F84FF00050B7
:101D700000F05EF8002000F03FF8402000F02EF860
:101D80004BF67F3000F010F81D20FFF7DDFF00F06C
:101D900001F810BD0348006840F0200001490860C8
:101DA0007047000000C80040054909686FF30F0143
:101DB000034A116011460968014311607047000031
:101DC00004C80040014604480068084008B10120EA
:101DD00070470020FCE7000008C80040054909687A
:101DE00021F04001034A1160114609680143116066
:101DF0007047000000C800400549096821F0004113
:101E0000034A1160114609680143116070470000E0
:101E100004C800400549096821F0E061034A1160E7
:101E200011460968014311607047000004C8004072
:101E30000549096821F04051034A116011460968BB
:101E4000014311607047000004C8004010B52C4BDE
:101E50001B6883432A4C2360231D1B688343241D76
:101E60002360231D1B688343241D2360231D1B68DF
:101E70008343241D236011B101290ED105E0204BBD
:101E80001B6803431E4C236008E01D4B1B1D1B6891
:101E900003431B4C241D236000E000BF00BF22B1A0
:101EA000012A0FD0022A27D119E0154B08331B68ED
:101EB0000343134C08342360231D1B688343241DF4
:101EC00023601AE00E4B08331B6883430C4C083424
:101ED0002360231D1B680343241D23600DE0084B72
:101EE00008331B680343064C08342360231D1B681A
:101EF0000343241D236000E000BF00BF10BD0000AD
:101F000000040140024909680143014A1160704719
:101F100000040140014908607047000014040140BA
:101F200001460748006800EA0102054814380068C5
:101F300000EA010312B10BB1012070470020FCE759
:101F4000140401404161704701617047F0B50446D7
:101F500016460025002201F00F0501F0100747B1D9
:101F6000042E05D145F00305E76B1F43E76300E04E
:101F7000354300201EE0012787401F40C7B122687B
:101F80004FEA800C0F2707FA0CF7BA43870005FACF
:101F900007F73A43282904D1012787401F4067618A
:101FA00005E0482903D1012787401F4027612260AF
:101FB000471CB8B20828DED3082022E0012787405A
:101FC0001F40E7B16268A0F108074FEA870C0F27AE
:101FD00007FA0CF7BA43A0F10807BF0005FA07F7A4
:101FE0003A43282904D1012787401F40676105E053
:101FF000482903D1012787401F4027616260471CA1
:10200000B8B21028DAD3F0BD02469068084008B193
:10201000012070470020FCE770B505460C460748D4
:102020000560204600F00EF800BF04480068002854
:10203000FBD1034800F0FEFE70BD00000000002050
:10204000000400401FB50446184800F0F3FE0121CB
:10205000164800F0FAFF022C02D10B20029004E097
:10206000012C02D142F6DF60029011480088ADF8E1
:1020700000000020ADF80200ADF80400ADF80C003F
:102080008DF80E006946094800F0EAFE0121074874
:1020900000F0E3FF054800F01BFC0121034800F0BD
:1020A000D8FF024800F0CBFE1FBD00000004004036
:1020B0000400002030B50B46002116E00A24B4EBE2
:1020C000107F05D9302404EB107403F8114005E0AB
:1020D000412404EB10740A3C03F811400001002570
:1020E0004C00641C1D554C1CE1B29142E6DB30BD36
:1020F0001FB50020254908802549088001F014FA01
:1021000001F0A4FA234B244A0121244801F074FE73
:1021100001F0E1F943F61B1000F0F6FAFFF722FE9A
:1021200000BF0120FFF74EFE0028FAD0FEF752FC58
:10213000FEF786FCFEF770FB00201949088019495C
:102140000880194908701949087019490870FEF784
:102150006BF9FEF79FFA17A103C9CDE9020117A198
:1021600003C9CDE900010FE0062102A8FEF73CFB00
:102170004FF4FA70FEF7F3F906216846FEF734FBD8
:102180004FF4FA70FEF7EBF9EEE700005C00002078
:102190005E00002004010020F40000207C010020EB
:1021A00046010020480100205B010020580100206A
:1021B00068010020686AF10100170000686AF101F7
:1021C000011800002DE9F04103460D461646002493
:1021D0000027A0462448006800F4E060B0F5A06F36
:1021E00015D006DCB0F5407F18D0B0F5806F19D15E
:1021F00010E0B0F5C06F06D0B0F5E06F12D1002747
:102200004FF0040815E001274FF0030811E0022702
:10221000B8460EE003274FF001080AE004274FF00C
:10222000000806E04FF4A06000F022F80227B8464C
:1022300000BF00BFC7F1040005FA00F4C8F10401B3
:102240000F20C8403040044324010848C45403F020
:102250001F01012088405911890001F1E021C1F8D6
:102260000001BDE8F08100000CED00E000E400E0BA
:1022700002490143024A1160704700000000FA055C
:102280000CED00E0034A0A400243034B1A60BFF31F
:102290004F8F704780FFFF1F08ED00E02A4A126849
:1022A00022F00302284B1A601A46126802431A6091
:1022B000264A126842F00402244B1A604FF0E022D2
:1022C0001269234B1A60234A12685A60214A121D70
:1022D00012689A601F4A08321268DA604FF0E022F2
:1022E00012691D4B1A404FF0E0231A611B4A194B2B
:1022F00080331A606FF4E0621B1D1A60D2124FF037
:10230000E023C3F8882109B930BF02E040BF20BFF5
:1023100020BF0F4A12684FF0E0231A610C4A52683E
:102320000C4B1A600A4A92684FF0E023C3F804216C
:10233000074AD268C3F80821044A126822F004024E
:10234000024B1A60704700000070004010ED00E082
:10235000B805002000E100E0040001003DF87FFF27
:10236000184B5968184B1940164BDA6A22F0005284
:102370000C2820D2DFE800F0060708091F0C1F0D0B
:102380001516171800BF00BF00BF41EA803113E0E7
:1023900000BF20F004004FF0805343EA803319431C
:1023A0000AE000BF00BF00BF20F00C0041EA80310E
:1023B00042F0005200E000BF00BF024B5960DA62F9
:1023C0007047000000100240FF3FFFEF054A116810
:1023D00021F0010141EA0002024BC03BC3F8C020DA
:1023E00070470000C01002402DE9F14F8EB0002070
:1023F0000C9055A090E8004CC068CDE905BECDF822
:1024000010A0079051A0D0F804A00068CDE9020AFE
:102410000FF2381ADAE9000ACDE9000A4E4840689E
:10242000C0F381000D900D9820B1012804D002283E
:1024300056D103E0494A55E0484A53E046484068CF
:1024400000F48039B9F5803F2FD14348C06A00F0CD
:1024500080400B900B9808B9404900E040493E4845
:10246000C06A00F480300A900A98B0F5803F12D11B
:102470003948C06AC0F30310401C08903648C06A4F
:10248000C0F30320871C112F00D114270898B1FB3B
:10249000F0F000FB07F13048C06A00F00F00401C6C
:1024A00009900998B1FBF0F100E02E492A484068F4
:1024B000C0F383432848406800F0005008B143F05F
:1024C00010030F2B01D29B1C00E05B1C01FB03F2ED
:1024D0000F2B04D101EB4100400000EB510201E061
:1024E0001E4A00BF00BF1C484068C0F3031504A883
:1024F000465D22FA06F418484068C0F3022502A897
:10250000465D24FA06FC14484068C0F3C2251DF855
:10251000056024FA06F80E9830B1012806D002288A
:1025200006D003280AD106E00C9208E00C9406E0DD
:10253000CDF830C003E0CDF8308000E000BF00BF30
:102540000C980FB0BDE8F08F000000000000000004
:1025500001020304060708090010024000127A0075
:10256000006CDC0200093D000146074A02EB9110B5
:10257000006801F01F0301229A40104008B10120B9
:1025800070470020FCE7000000100240064A02EB02
:102590009011096800F01F0301229A401143024B79
:1025A00003EB90121160704700100240F0B5064630
:1025B0000024002700251C2E7DD007DCB6B3102E8A
:1025C00010D0182E67D01A2E76D176E0B6F5006FAF
:1025D00019D0B6F5106F4CD0A6F540501038002831
:1025E000F2D134E004E01120FFF7BEFF0546641C81
:1025F0001DB94FF6FF708442F5D11120FFF7B4FFEB
:1026000000B101277AE005E040F60100FFF7ACFFDA
:102610000546641C1DB96FF07C408442F4D140F63D
:102620000100FFF7A1FF00B1012767E0FFE704E029
:102630000120FFF799FF0546641C15B9B4F5A06F9A
:10264000F6D10120FFF790FF00B1012756E005E029
:1026500043F21100FFF788FF0546641C15B92948AD
:102660008442F5D143F21100FFF77EFF00B101274C
:1026700044E005E040F60110FFF776FF0546641CD4
:1026800015B920488442F5D140F60110FFF76CFFE0
:1026900000B1012732E004E01920FFF765FF05468D
:1026A000641C15B917488442F6D11920FFF75CFF66
:1026B00000B1012722E010E01FE004E01B20FFF73B
:1026C00053FF0546641C15B90E488442F6D11B2001
:1026D000FFF74AFF00B1012710E004E01D20FFF7DB
:1026E00043FF0546641C15B906488442F6D11D20F7
:1026F000FFF73AFF00B1012700E000BF00BF3846F6
:10270000F0BD0000FFFF0F00064A02EB90110968C0
:1027100000F01F0301229A401143024B03EB901279
:102720001160704700100240064A02EB90110968E0
:1027300000F01F0301229A409143024B03EB9012D9
:102740001160704700100240064A02EB90110968C0
:1027500000F01F0301229A401143024B03EB901239
:102760001160704700100240044A516821F4400192
:1027700041EA0002014B5A6070470000001002401D
:10278000F0B504462078062813D00E480568001DD1
:102790000668001D07683D4455B10822A11C284663
:1027A000FFF788FC042204F112013046FFF782FC97
:1027B00006E00549086810B16080010CA18000BFE7
:1027C000F0BD0000E8F7FF1F0021024000200021BB
:1027D000374A126842F48032354B1A6000BF401C01
:1027E000334A126802F4003119B94FF6FF72904271
:1027F000F5D12F4A126802F400320AB900BFFEE791
:102800002C4A126822F00702D21C2A4B1A60284A6E
:102810005268274B5A601A4652685A601A465268E4
:1028200042F480625A601A465268234B1A40204B89
:102830005A601A465268214B1A431D4B5A601A4679
:10284000D26A1F4B1A401A4BDA621A46D26A1D4BE3
:102850001A43174BDA621A46126842F080621A6015
:1028600000BF134A126802F00062002AF9D0104A31
:10287000126842F080720E4B1A6000BF0C4A126858
:1028800002F00072002AF9D0094A526822F00302CD
:10289000074B5A601A46526842F002025A6000BF63
:1028A000034A526802F00802002AF9D0704700007B
:1028B0000010024000200240FFFFC3DF000035206F
:1028C00000F0FEBF1908010010B5FFF77FFF10BD33
:1028D000016841F08001016070470246002031B17B
:1028E000012906D0022906D0032908D105E0506B42
:1028F00006E0906B04E0D06B02E0106C00E000BFDB
:1029000000BF704731B101290CD0022913D003292F
:1029100022D118E0836923F00C0383618369134398
:1029200083611AE0836923F440638361836943EA26
:102930000223836111E0C36923F00C03C361C369FF
:102940001343C36109E0C36923F44063C361C369EE
:1029500043EA0223C36100E000BF00BF70470021CB
:1029600001800121418000218180C18070470000E9
:1029700010B531B101293FD002297DD003297CD186
:10298000BFE0036A23F001030362036A1488234350
:102990000362036A23F002030362036A94882343F9
:1029A00003626C4B984202D06B4B98421FD1036A72
:1029B00023F004030362036A548823430362036A17
:1029C00023F008030362036AD48823430362436845
:1029D00023F480734360436814892343436043684E
:1029E00023F400734360436854892343436083693D
:1029F00023F003038361ABE0036A23F01003036257
:102A0000036A148843EA04130362036A23F0200371
:102A10000362036A948843EA041303624D4B9842AD
:102A200002D04D4B984223D1036A23F04003036246
:102A3000036A548843EA04130362036A23F08003A1
:102A40000362036AD48843EA04130362436823F4ED
:102A5000806343604368148943EA840343604368A6
:102A600023F4006343604368548943EA840343606A
:102A7000836923F4407301E002E068E0836167E06A
:102A8000036A23F480730362036A148843EA04230D
:102A90000362036A23F400730362036A948843EABF
:102AA000042303622B4B984202D02B4B984223D134
:102AB000036A23F480630362036A548843EA0423AD
:102AC0000362036A23F400630362036AD48843EA5F
:102AD00004230362436823F48053436043681489EA
:102AE00043EA04134360436823F40053436043689C
:102AF000548943EA04134360C36923F00303C361A9
:102B000026E0036A23F480530362036A148843EACD
:102B100004330362036A23F400530362036A948854
:102B200043EA043303620B4B984202D00A4B9842AB
:102B300008D1436823F4804343604368148943EA1F
:102B400084134360C36923F44073C36100E000BF92
:102B500000BF10BD002C01400034014031B10129FB
:102B60000CD0022913D0032922D118E0836923F065
:102B7000700383618369134383611AE0836923F4DB
:102B8000E0438361836943EA0223836111E0C369FF
:102B900023F07003C361C3691343C36109E0C369D0
:102BA00023F4E043C361C36943EA0223C36100E045
:102BB00000BF00BF704731B101290CD0022913D0EA
:102BC000032923D119E0036A23F002030362036A95
:102BD000134303621BE0036A23F020030362036ACA
:102BE00043EA0213036212E0036A23F400730362F0
:102BF000036A43EA0223036209E0036A23F40053F1
:102C00000362036A43EA0233036200E000BF00BFCD
:102C1000704731B1012906D0022906D0032908D115
:102C200005E0426306E0826304E0C26302E00264FE
:102C300000E000BF00BF704731B101290CD002296C
:102C400013D0032922D118E0836923F0080383619C
:102C50008369134383611AE0836923F4006383610A
:102C6000836943EA0223836111E0C36923F0080307
:102C7000C361C3691343C36109E0C36923F40063FB
:102C8000C361C36943EA0223C36100E000BF00BF20
:102C900070470021018041808180C1800181418194
:102CA000704701460020486A704741627047000043
:102CB00010B504465C49601A8C426FD019DC5B4940
:102CC000A4EB01008C424ED009DCB4F1804F2ED031
:102CD00057482044A0B3B0F5806F72D13AE0B0F508
:102CE000806F49D0B0F5006F4FD0B0F5406FF4D190
:102CF0007BE0B0F5983F5BD009DCB0F5806F73D016
:102D0000B0F5883F0AD0B0F58C3F5AD147E0B0F516
:102D10009A3F57D0B0F59C3F53D15CE040F20B3066
:102D2000FFF712FD40F20B30FFF7FEFC79E04FF4A5
:102D30008060FFF709FD4FF48060FFF7F5FC70E05D
:102D4000FFE740F20140FFF7FFFC40F20140FFF7D0
:102D5000EBFC66E040F20240FFF7F6FC40F2024076
:102D6000FFF7E2FC5DE040F20340FFF7EDFC40F2CC
:102D70000340FFF7D9FC54E040F20440FFF7E4FCC5
:102D800040F20440FFF7D0FC4BE040F20540FFF773
:102D9000DBFC40F20540FFF7C7FC42E02EE040F2CA
:102DA0000D30FFF7D1FC40F20D30FFF7BDFC38E0ED
:102DB00040F21330FFF7C8FC40F21330FFF7B4FCC9
:102DC0002FE02DE04FF44570FFF7BEFC4FF4457047
:102DD000FFF7AAFC25E040F21530FFF7B5FC40F202
:102DE0001530FFF7A1FC1CE011E040F20640FFF7B0
:102DF000ABFC40F20640FFF797FC12E040F20740C0
:102E0000FFF7A2FC40F20740FFF78EFC09E04FF409
:102E10008160FFF799FC4FF48160FFF785FC00E0CB
:102E200000BF00BF10BD0000001C0040000C0040AF
:102E300000FCFFBF016821F00101016070470168DB
:102E400041F0010101607047CA43026170470246C8
:102E50001069084008B1012070470020FCE700001D
:102E60000A888262204A90420ED0B0F1804F0BD087
:102E70001E4A904208D01E4A904205D01D4A9042F8
:102E800002D01D4A90420FD1026822F07002026007
:102E900002688B7803F060031A43026002680B79C2
:102EA00003F010031A4302608A68C262134A904218
:102EB0000CD0134A904209D0026822F4407202609A
:102EC00002688B8903F440731A430260064A9042F9
:102ED00002D0094A904201D18A7B0263426942F0E2
:102EE0000102426170470000002C014000040040D4
:102EF00000080040000C0040003401400010004079
:102F00000014004070B504460E46154636B1012E39
:102F100026D0022E48D0032E7DD168E0206A20F012
:102F200001002062206A20F00A002062206A2988BD
:102F300008432062A06920F00300A061A0696988AD
:102F40000843A061A06920F0F000A061A069E988B1
:102F500040EA0110A061206A40F0010020626DE0AB
:102F6000206A20F010002062206A20F0A000206279
:102F7000206A298840EA01102062A06920F440708C
:102F8000A061A069698840EA0120A061A06920F4DD
:102F90007040A061A069E98840EA0130A061206A20
:102FA00040F01000206249E0206A20F48070206226
:102FB000206A20F420602062206A298840EA0120EB
:102FC0002062E06920F00300E061E069698808435D
:102FD000E061E06920F0F000E061E069E98840EA42
:102FE0000110E061206A40F48070206226E0206ACF
:102FF00020F480502062206A20F400502062206A71
:10300000298840EA01302062E06920F44070E061E4
:10301000E069698800E010E040EA0120E061E069D1
:1030200020F47040E061E069E98840EA0130E06145
:10303000206A40F48050206200E000BF00BFAA88F0
:1030400031462046FFF75EFC70BDC2688A43C2600D
:103050007047C2680A43C2607047CA430261704742
:103060000246D06800EA01031069084010B10BB1B4
:10307000012070470020FCE7002101804180818011
:103080004FF6FF7181600021818181737047014695
:103090004868C0F30800704710B500EB9152126801
:1030A000C1F304440123A3409A4300EB91531A60F7
:1030B00010BD70B5024600230024C1F389101058DA
:1030C00001F01F060125B54000EA050302EB91500F
:1030D0000068C1F304460125B54000EA050414B1B7
:1030E0000BB1012070BD0020FCE770B5B0B0044604
:1030F0000D46164600202071022060702670012EB9
:1031000009D14FF0A040E0600820A0700420E070DA
:103110000220607102E0012030B070BD00BF0120CC
:10312000A0710020E071BC2101A8FDF718F9E0684A
:103130000190E06800F500600290E06800F58060B2
:103140000390E06800F588601F90E06800F560601B
:10315000BC2201A92F902846FDF7CFF8002013E0EC
:10316000E16801F5106101EB401205F10C0141F835
:103170002020E16801F5306101EB401205F12401E6
:1031800041F82020411CC8B2E1788142E8DC0020EF
:1031900013E0E16801F5A06101EB401205F13C018B
:1031A00041F82020E16801F5805101EB003205F182
:1031B0007C0141F82020411CC8B2A1788142E8DCA2
:1031C0000020A9E7C17961B14169896801F0010175
:1031D00039B1D0F8C810096821F00302D0F8C8103E
:1031E0000A6070471FB5069C9DF8050001281ED196
:1031F0002068806B20F48030216888639DF8060089
:1032000028B12068806B40F48010216888632068B2
:10321000C068214908402168C8602068C06820F45F
:1032200080102168C860204600F038F820E020684F
:10323000C06840F040002168C860204600F02EF8C9
:103240002068806B40F45020216888632068806B80
:1032500040F40010216888639DF8060028B12068BA
:10326000806B40F4801021688863142000F055F9C9
:103270009DF8040001280BD12068806820F01E0012
:10328000216888602068806840F02A002168886092
:10329000002004B010BD0000BFFFDFFF10B50446E2
:1032A0002068006940F001002168086100BF2068C3
:1032B000006900F001000028F9D1032000F0AAFB0A
:1032C00010BD0000084A416B0A610179012909D14A
:1032D00000F21C41426B5161416B096841F0802250
:1032E000416B0A6070470000180008600268D268ED
:1032F00022F0C0420368DA6031B90268D26842F055
:1033000080420368DA6007E0012905D10268D268CB
:1033100042F000520368DA607047000070B504465E
:103320000021D4F8C80001606069006820F4C05131
:1033300060690160606900686169086060690068CF
:1033400020F00301606901602078012817D16069CD
:10335000006840F0030160690160802021694862D3
:1033600000BF002509E0404830F81520294604F147
:10337000100000F047F9681CC5B2042DF3D31021EA
:1033800004F1100000F021FB04F1100000F01AF924
:1033900000216069016160694161491E6069816164
:1033A00000216069C16100254FE004F11C0050F864
:1033B0002500006800F0004060B104F11C0050F8E6
:1033C0002500006840F0904104F11C0050F82500F1
:1033D000016005E0002104F11C0050F825000160A7
:1033E000002104F11C0050F825000161FF2104F1C7
:1033F0001C0050F82500816004F1340050F82500CD
:10340000006800F0004060B104F1340050F825007D
:10341000006840F0904104F1340050F8250001604C
:1034200005E0002104F1340050F82500016000217E
:1034300004F1340050F825000161FF2104F134004B
:1034400050F825008160681CC5B2E078A842ACDC69
:103450006069006940F0100160690161204600F078
:1034600005F8002070BD00000E00002001464FF05E
:10347000FF300A6950606FF080400A695061094866
:103480000A699061087928B90869806940F01000DC
:103490000A69906108698069034A10430A6990616A
:1034A000002070470008008008303C0030B502461C
:1034B000002055692B6955696C6B24FA01F505F0FC
:1034C000010543EAC51302F11C0555F82150AD680A
:1034D00005EA030030BD10B54FF4A060FEF7C8FE4A
:1034E000002202214320FEF76DFE40F21C70FFF720
:1034F0000BF94FF48020FEF70DFD002211464FF42A
:103500008020FEF7A3FC4FF48020FEF7FBFC002296
:1035100001212A20FEF756FE10BD10B504460121F8
:103520002046FEF779FD10BD10B50020FEF75CFFC8
:1035300004461E48844207D103201D4908804FF4E9
:1035400080001C4908601EE01B48844206D105200B
:103550001749088000201749086014E01748844282
:1035600007D10720124908804FF440001149086034
:1035700009E01348844206D109200D4908804FF420
:1035800000000C49086043F21000FEF7FFFF00BF87
:1035900043F21000FFF70AF80128F9D1FEF716FFF1
:1035A00040F20C50FFF7B0F810BD0000006CDC02D8
:1035B000040000200800002000A24A0400D8B8053A
:1035C000000E270710B5044610202168086100BFCF
:1035D0002068006900F010000028F9D1032000F0F5
:1035E00019FA002010BD70B50346D01C8508DC6FA9
:1035F00002E020680860091D281EA5F10105F8D128
:10360000084670BD70B513460468626A21B942EA83
:1036100003440568AC6218E00468A46A02EB144233
:10362000002408E0056805F5827555F8245002EB82
:103630001542651CECB24D1EA542F3D842EA034682
:10364000046804F5827444F8256070BD10B500214B
:103650004FF00060FEF716FE4FF4A060FEF708FE84
:10366000002201211D20FEF7ADFD40F20170FFF7A1
:103670004BF810BD10B501210A48FFF7F1FC78B1F5
:1036800001210848FFF7E9FC0748006828B106480F
:103690000068401E0449086002E00248FFF7CAFBC8
:1036A00010BD0000000400400000002078B5024674
:1036B0000C46002100200090207800F00F032078B5
:1036C000C00938B102F11C0050F8231001209840C5
:1036D000009008E002F1340050F8231003F11000CC
:1036E000012585400095086800F40040E8B90868A5
:1036F000124D284008604BB908685569AD6805F05F
:1037000006050F4E755D2843086003E00868A5882C
:10371000284308606078800440EA835040F080507D
:1037200040F400400D68284308605069C069009D5E
:1037300028435569E861002078BD000000F833FC9B
:103740001045000810B503460022087800F00F0469
:103750000878C00920B103F11C0050F8242003E0D0
:1037600003F1340050F82420106820F40010106099
:103770004878032802D04878022803D1106840F026
:1037800080501060002010BD30B502460B4600246A
:10379000187800F00F011878C00978B1012000FAFC
:1037A00001F402F11C0050F82100006820F40045EB
:1037B00002F11C0050F82100056010E001F110003A
:1037C000012505FA00F402F1340050F821000068E8
:1037D00020F4004502F1340050F8210005605069E2
:1037E000C069A0435569E861002030BD2DE9FC4166
:1037F00005460C460027207800F00F0605F11C0056
:1038000050F826000068019005F11C0050F82600D1
:1038100000690090009800F060400090E06820B9D6
:10382000009840F40020009022E066B9A188E0688A
:10383000884201D2E06800E0A088E060009840F48F
:103840000020009009E0E068401EA1880844B0FB19
:10385000F1F0009941EAC0400090E0680099084307
:1038600000906078012803D1009840F0005000904B
:1038700005F11C0050F826000099016160780128CC
:103880000DD168698068C0F3002020B1019840F034
:103890008050019003E0019840F000500190287999
:1038A000012805D105F11C0050F82600A1694161ED
:1038B000019840F00440019005F11C0050F82600EA
:1038C000019901602879A0B96078012809D0E068E1
:1038D00078B16869406B0121B14008436969486368
:1038E00007E0A08983B2324605F11000A16800F01C
:1038F00080F83846BDE8FC81F0B50246002608781D
:1039000000F00F0302F1340050F82300056802F1C3
:10391000340050F82300046904F06044C86800B122
:1039200023B98888044344F400240CE0B1F804C0AF
:10393000CF6867447F1EB7FBFCF044EAC0448F8821
:1039400047433C4300BF02F1340050F823000461B8
:103950001079012805D102F1340050F823008F6955
:1039600047614878012806D1C87810B145F0005564
:1039700001E045F0805545F0044502F1340050F86F
:10398000230005603046F0BD10B502460B4600210D
:10399000187800F00F041878C00960B102F11C001B
:1039A00050F82410086800F0004040B1086840F06A
:1039B0008040086003E002F1340050F824100868E9
:1039C00040F400100860002010BD70B504460D469C
:1039D000202040EA85102168086100BF2068006946
:1039E00000F020000028F9D1032000F013F8002097
:1039F00070BDF0B50446D81C860804F17C0050F870
:103A0000225002E008682860091D301EA6F1010658
:103A1000F8D1F0BD10B5044602212046FEF7FCFAAD
:103A200010BD70B504460D46CE20005D032809D1B7
:103A30002879012806DCD4F82C042946C2682046DF
:103A4000904770BD0120FCE710B5044600BF6069D7
:103A5000406820F002016069416000BF0320FFF769
:103A60005CFD10BD70B5044604F51D7500212046AF
:103A70006B69AA6800F0C1F8A9886869884203D90F
:103A8000032184F8241402E0042184F82414002083
:103A900070BD70B5044604F1D005002120466B6965
:103AA000AA6800F0C8F8A9886869884203D901218A
:103AB00084F8241402E0022184F82414002070BD4C
:103AC00010B50446062184F8241400231A4619462A
:103AD000204600F092F82046FFF7F4FB002010BDCE
:103AE00010B50446052184F8241400231A4619460B
:103AF000204600F0A0F82046FFF7E4FB002010BDB0
:103B000010B5044600BF6069406840F0020160697A
:103B1000416000BF0320FFF700FD10BD2DE9F0411B
:103B200006460F46C7EBC70106F1D00000EB810443
:103B3000D4E90301451AA088A84200D2A588E81C50
:103B40004FEA900821E0D4E90301451AA088A84271
:103B500000D2A588E81C4FEA9008ABB2FAB206F191
:103B60001000A168FFF745FFA0682844A060206905
:103B700028442061D4E90310884206D17069406B63
:103B80000121B94088437169486306F11C0050F86F
:103B90002700806980B2404503D3D4E903108842EE
:103BA000D1D30120BDE8F08170B504460D468021D7
:103BB000204600F097F80021204600F093F82046B8
:103BC000FFF780FB70BD70B505460C46E01140B1B3
:103BD00004F07F00C0EBC00105F1D00000EB8106CE
:103BE00005E0C4EBC40105F51D7000EB810631460C
:103BF0002846FFF7C9FD002070BD2DE9F0410546BC
:103C00000F461646984607F07F00C0EBC00105F549
:103C10001D7000EB8104A660C4F80C8000202061B8
:103C20002879012800D1A66121462846FFF764FEC5
:103C30000020BDE8F0812DE9F04105460F4616460B
:103C4000984607F07F00C0EBC00105F1D00000EB03
:103C50008104A660C4F80C80002020612879012826
:103C600000D1A66121462846FFF7C0FD0020BDE82F
:103C7000F08100002DE9F04107460E46B578B6F810
:103C80000480E81168B105F07F00C0EBC00107F1C6
:103C9000D00000EB8104207820F08000803020707C
:103CA00009E0C5EBC50107F51D7000EB8104207824
:103CB00020F080002070207865F303002070A4F8C5
:103CC0000480F07800F00300054911F820006070CE
:103CD00021463846FFF7EAFC0020BDE8F0810000ED
:103CE0005045000870B505460C460026E01140B16D
:103CF00004F07F00C0EBC00105F1D00000EB8106AD
:103D000005E0C4EBC40105F51D7000EB8106012040
:103D1000B07031462846FFF737FE002070BD70B501
:103D200005460C460026E01140B104F07F00C0EBD0
:103D3000C00105F1D00000EB810605E0C4EBC40131
:103D400005F51D7000EB81060020B0703146284655
:103D5000FFF7F8FC002070BD70B504460E46002E3B
:103D60003AD104F1D00594F82404012802D00228A5
:103D70002FD10EE0A9886869401A6861207901286E
:103D800003D1A988A8680844A8602046FFF781FEEF
:103D900020E094F8250448B100231A46194620462D
:103DA000FFF749FF002184F8251411E0CE20005DC3
:103DB000032808D1D4F82C04406920B1D4F82C048D
:103DC000416920468847002068612046FFF778FE59
:103DD00000E000BF00BF0DE0CE20005D032809D148
:103DE000D4F82C04C06928B1D4F82C043146C26937
:103DF00020469047002070BDF8B504460D46164693
:103E00001F46C4F82864C4F82C74D4F82814C96870
:103E1000C868FEF7B5FC2A4604F110012046FFF7FA
:103E200064F900BF2069806820F001002169886082
:103E300000BF04F11000009094E80F00FFF7D2F9E2
:103E40002046FFF75DFE002104F11000FFF74EFA57
:103E50002046FFF763FA00BF2069806840F0010048
:103E60002169886000BF2046FFF7EEFD0121CE20CA
:103E70000155F8BD014648698068C0F341024869B0
:103E8000406820F48073486943604869406840F4A2
:103E90008073486943600869C06820F470500B69FA
:103EA000D8600D48805C032807D148700869C06855
:103EB00040F410500B69D86007E002204870086990
:103EC000C06840F4A0500B69D8604FF400500B69F3
:103ED000586101207047000014450008F8B50446F9
:103EE0000026002500BF616988696169C9690840C9
:103EF00000F03F010E4632E006F0010060B32946B3
:103F00002046FFF7D3FA0090009800F00100A0B11E
:103F1000012104F11C0050F825008160294620464B
:103F2000FFF71AFF2079012807D135B994F8240446
:103F3000052802D12046FFF7C5F9009800F080005F
:103F400048B129462046FFF7E9FD802104F11C0015
:103F500050F82500816000BF7608681CC5B2002EAD
:103F6000CAD10120F8BD7CB504460026002500BF5B
:103F7000616988696169C9690840C0F305410E46F5
:103F800054E006F0010000284DD000BF04F13401D8
:103F900051F82510886861694969084000BF01909F
:103FA000019800F0010080B3012104F1340050F8C1
:103FB000250081602079012818D104F1340050F8DF
:103FC000250000690090C5EBC50104F51D7000EBEC
:103FD000810080880099C1F31201411AC5EBC50226
:103FE00004F51D7000EB8200016100BF29462046E8
:103FF00000F087F92079012807D135B994F8240415
:10400000062802D12046FFF75DF9019800F008006C
:1040100040B1204600F0B7F9082104F1340050F80F
:104020002500816000BF7608681CC5B2002EA8D1AB
:1040300001207CBD30B58FB004466069406820F037
:10404000010160694160002104F11000FFF7BDFC2F
:1040500000250BE0FF2104F11C0050F825008160D1
:1040600004F1340050F8250081606D1CE078A8420E
:10407000F0D84FF0FF31606981614FF00111606944
:10408000C161092160694161012160690161606963
:10409000006820F4FE61606901602046FFF712F9B4
:1040A0004FF48050216948611C2108A8FCF757F99A
:1040B0001C22144908A8FCF720F91C2208A904F5C1
:1040C0001D70FCF71AF904F51D712046FFF7EEFA92
:1040D0001C2101A8FCF743F91C220B4901A8FCF79D
:1040E0000CF91C2201A904F1D000FCF706F904F137
:1040F000D0012046FFF7DAFA0121CE200155012038
:104100000FB030BD18450008344500082DE9F843CC
:1041100004460025002700260020009020698069C1
:1041200020F01000216988612069006A00900098E1
:1041300000F00F08C8EBC80104F51D7000EB810505
:104140000098C0F30A160098C0F3C1370098C0F376
:104150004340072828D2DFE800F02704051314277E
:10416000150022E05EB1B2B204F11000A968FFF7B9
:104170003AFAA8683044A86028693044286114E0FD
:1041800013E012E0287800F00F0060B9082E0AD181
:104190004FB9B2B204F21C4104F11000FFF723FA48
:1041A00028693044286100E000BF00BF20698069B1
:1041B00040F01000216988610120BDE8F8833EB518
:1041C0000446E07902906069806800F00100019087
:1041D000CE20005D032801D1012000E000200090E6
:1041E000CE20015DCF2001550421CE2001559DF840
:1041F000080088B19DF8040070B19DF8000058B126
:10420000D4F8C800006840F00301D4F8C800016089
:1042100000210120FEF742F84FF400602169486157
:1042200001203EBD70B504462069406900F00100E0
:10423000002864D1206940692169896900EA010583
:1042400005B970BD05F4002010B12046FFF78BFEC4
:1042500005F4802010B12046FFF740FE05F4006011
:1042600010B12046FFF7ABFF05F0004028B1032155
:10427000CE20015580072169486105F0080058B13A
:10428000D4F82C04406A20B1D4F82C04416A2046AA
:10429000884708202169486105F0100010B12046C8
:1042A000FFF734FF05F4805010B12046FFF7C2FE3F
:1042B00005F4005010B12046FFF7DCFD05F4801036
:1042C00060B1D4F82C04806A20B1D4F82C04816A3F
:1042D000204688474FF480102169486105F400109A
:1042E00060B1D4F82C04C06A20B1D4F82C04C16A9F
:1042F000204688474FF400102169486100BF00BF85
:104300009FE770B504460E466EBB04F51D7594F824
:104310002404032802D0042822D10EE0A988686969
:10432000401A68612079012803D1A988A868084447
:10433000A8602046FFF796FB13E0CE20005D03281F
:1043400008D1D4F82C04806920B1D4F82C048169F8
:1043500020468847002068612046FFF7C1FB00E047
:1043600000BF00BF0DE0D4F82C04006A48B1CE2095
:10437000005D032805D1D4F82C043146026A20469A
:104380009047002070BD7CB50446012504F573708C
:10439000416D006DCDE900019DF8000000F0600066
:1043A00020B1202808D0402812D10BE069462046D1
:1043B00000F02CF805460CE069462046FFF731FB7B
:1043C000054606E06946204600F02EF8054600E066
:1043D00000BF00BF9DB9BDF8060018B92046FFF721
:1043E0007FFB10E09DF8000000F0800018B120462F
:1043F000FFF74FFB07E02046FFF734FB03E0694679
:104400002046FFF7D1FB00207CBD000070B50546BB
:104410000C466078034951F82020214628469047F1
:1044200070BD0000180000200246002070474FF0C9
:104430004070E1EE100A70470C1014182030400054
:10444000000000000000000001000000000000006B
:104450000200000000000000030000000000000057
:104460000300000001000000040000000100000043
:10447000050000000100000006000000010000002F
:10448000060000000200000007000000020000001B
:104490000800000002000000090000000200000007
:1044A00009000000030000000A00000003000000F3
:1044B0000B000000030000000C00000003000000DF
:1044C0000D000000030000000D00000004000000CB
:1044D0000E000000040000000F00000004000000B7
:1044E0000F000000050000000F00000006000000A3
:1044F0000F000000070000000000000000000000A6
:10450000FFFFFFFF0000000000000000FFFFFFFFB3
:104510000000030003020102000000004000000050
:10452000000000000000000000000000000000008B
:1045300000000000800000004000000000000000BB
:10454000000000000000000000000000000000006B
:104550000000000001000000020000000300000055
:104560001201000202000040E3188B510001010219
:104570000301090243000201008032090400000126
:104580000202010005240010010524010001042499
:10459000020205240600010705820308000A090437
:1045A0000100020A000000070503024000000705A1
:1045B00081024000000403090416034D0061006EEF
:1045C000006500720073006F0020002000200000D2
:1045D00000000000000000000000000000000000DB
:1045E00000000000000000000000000000000000CB
:1045F00000000000000000000000000000000000BB
:1046000000000000000000000000000000000000AA
:10461000000000000000000000000000000000009A
:10462000000000000000000000000000000000008A
:1046300000000000000000000000001A03450030E8
:1046400000420044002D005500530042005F005618
:1046500000430049000000000000000000000000CE
:10466000000000000000000000000000000000004A
:10467000000000000000000000000000000000003A
:10468000000000000000000000000000000000002A
:10469000000000000000000000000000000000001A
:1046A000000000000000000000000000000000000A
:1046B00000000000000000000000000000000000FA
:1046C000B5450008B94500083B46000871000020C8
:1046D00000C2010000000800F846000800000020A9
:1046E0007C0100008C010008644700087C01002068
:1046F0006C580000E801000841720512801A40045D
:104700006113BD141408BB12140881154C089F16C0
:10471000081A87041371131B0899101A2F081AE539
:10472000101A81281307171B084B041AA7301A8583
:10473000041A510C011903811A031360451B0872F6
:10474000044113C0463308FF13C11A1B084D048BE4
:10475000451CBC1AF50C1A71140B19211BD0013120
:0447600083B02800FA
:04000005080001519D
:00000001FF
